{
  "_format": "hh-sol-artifact-1",
  "contractName": "PoolFactory",
  "sourceName": "contracts/PoolFactory.sol",
  "abi": [
    {
      "anonymous": false,
      "inputs": [
        {
          "indexed": true,
          "internalType": "address",
          "name": "poolAddress",
          "type": "address"
        },
        {
          "indexed": false,
          "internalType": "uint256",
          "name": "amountA",
          "type": "uint256"
        },
        {
          "indexed": false,
          "internalType": "uint256",
          "name": "amountB",
          "type": "uint256"
        },
        {
          "indexed": false,
          "internalType": "uint256",
          "name": "liquidity",
          "type": "uint256"
        }
      ],
      "name": "LiquidityAdded",
      "type": "event"
    },
    {
      "anonymous": false,
      "inputs": [
        {
          "indexed": true,
          "internalType": "address",
          "name": "poolAddress",
          "type": "address"
        },
        {
          "indexed": false,
          "internalType": "address",
          "name": "tokenA",
          "type": "address"
        },
        {
          "indexed": false,
          "internalType": "address",
          "name": "tokenB",
          "type": "address"
        }
      ],
      "name": "PoolCreated",
      "type": "event"
    },
    {
      "anonymous": false,
      "inputs": [
        {
          "indexed": true,
          "internalType": "address",
          "name": "poolAddress",
          "type": "address"
        },
        {
          "indexed": false,
          "internalType": "address",
          "name": "tokenIn",
          "type": "address"
        },
        {
          "indexed": false,
          "internalType": "address",
          "name": "tokenOut",
          "type": "address"
        },
        {
          "indexed": false,
          "internalType": "uint256",
          "name": "amountIn",
          "type": "uint256"
        },
        {
          "indexed": false,
          "internalType": "uint256",
          "name": "amountOut",
          "type": "uint256"
        }
      ],
      "name": "SwapExecuted",
      "type": "event"
    },
    {
      "inputs": [
        {
          "internalType": "address",
          "name": "poolAddress",
          "type": "address"
        },
        {
          "internalType": "uint256",
          "name": "amountA",
          "type": "uint256"
        },
        {
          "internalType": "uint256",
          "name": "amountB",
          "type": "uint256"
        }
      ],
      "name": "addLiquidity",
      "outputs": [],
      "stateMutability": "nonpayable",
      "type": "function"
    },
    {
      "inputs": [
        {
          "internalType": "address",
          "name": "tokenA",
          "type": "address"
        },
        {
          "internalType": "address",
          "name": "tokenB",
          "type": "address"
        }
      ],
      "name": "createPool",
      "outputs": [],
      "stateMutability": "nonpayable",
      "type": "function"
    },
    {
      "inputs": [
        {
          "internalType": "uint256",
          "name": "",
          "type": "uint256"
        }
      ],
      "name": "poolList",
      "outputs": [
        {
          "internalType": "address",
          "name": "",
          "type": "address"
        }
      ],
      "stateMutability": "view",
      "type": "function"
    },
    {
      "inputs": [
        {
          "internalType": "address",
          "name": "",
          "type": "address"
        }
      ],
      "name": "pools",
      "outputs": [
        {
          "internalType": "address",
          "name": "tokenA",
          "type": "address"
        },
        {
          "internalType": "address",
          "name": "tokenB",
          "type": "address"
        },
        {
          "internalType": "uint256",
          "name": "reserveA",
          "type": "uint256"
        },
        {
          "internalType": "uint256",
          "name": "reserveB",
          "type": "uint256"
        },
        {
          "internalType": "uint256",
          "name": "totalLiquidity",
          "type": "uint256"
        }
      ],
      "stateMutability": "view",
      "type": "function"
    },
    {
      "inputs": [
        {
          "internalType": "address",
          "name": "poolAddress",
          "type": "address"
        },
        {
          "internalType": "address",
          "name": "tokenIn",
          "type": "address"
        },
        {
          "internalType": "uint256",
          "name": "amountIn",
          "type": "uint256"
        }
      ],
      "name": "swap",
      "outputs": [],
      "stateMutability": "nonpayable",
      "type": "function"
    },
    {
      "inputs": [
        {
          "internalType": "address",
          "name": "poolAddress",
          "type": "address"
        }
      ],
      "name": "withdrawLiquidity",
      "outputs": [],
      "stateMutability": "nonpayable",
      "type": "function"
    }
  ],
  "bytecode": "0x608060405234801561001057600080fd5b506116ec806100206000396000f3fe608060405234801561001057600080fd5b50600436106100625760003560e01c80632a48235b1461006757806355776b77146100975780639d67ac37146100b3578063a4063dbc146100cf578063df791e5014610103578063e34336151461011f575b600080fd5b610081600480360381019061007c9190611048565b61013b565b60405161008e91906110b6565b60405180910390f35b6100b160048036038101906100ac91906110fd565b61017a565b005b6100cd60048036038101906100c89190611150565b61045b565b005b6100e960048036038101906100e49190611150565b6106ac565b6040516100fa95949392919061118c565b60405180910390f35b61011d600480360381019061011891906111df565b610722565b005b61013960048036038101906101349190611232565b610d42565b005b6001818154811061014b57600080fd5b906000526020600020016000915054906101000a900473ffffffffffffffffffffffffffffffffffffffff1681565b60008060008573ffffffffffffffffffffffffffffffffffffffff1673ffffffffffffffffffffffffffffffffffffffff1681526020019081526020016000209050600073ffffffffffffffffffffffffffffffffffffffff168160000160009054906101000a900473ffffffffffffffffffffffffffffffffffffffff1673ffffffffffffffffffffffffffffffffffffffff160361024f576040517f08c379a0000000000000000000000000000000000000000000000000000000008152600401610246906112cf565b60405180910390fd5b8060000160009054906101000a900473ffffffffffffffffffffffffffffffffffffffff1673ffffffffffffffffffffffffffffffffffffffff166323b872dd3330866040518463ffffffff1660e01b81526004016102b0939291906112ef565b6020604051808303816000875af11580156102cf573d6000803e3d6000fd5b505050506040513d601f19601f820116820180604052508101906102f3919061135e565b508060010160009054906101000a900473ffffffffffffffffffffffffffffffffffffffff1673ffffffffffffffffffffffffffffffffffffffff166323b872dd3330856040518463ffffffff1660e01b8152600401610355939291906112ef565b6020604051808303816000875af1158015610374573d6000803e3d6000fd5b505050506040513d601f19601f82011682018060405250810190610398919061135e565b5060006103af83856103aa91906113ba565b610fb0565b9050838260020160008282546103c591906113fc565b92505081905550828260030160008282546103e091906113fc565b92505081905550808260040160008282546103fb91906113fc565b925050819055508473ffffffffffffffffffffffffffffffffffffffff167f64b83944e79c3ce8d4c297411de637c3e102d064677aac0c163976ebdcd6f50e85858460405161044c93929190611430565b60405180910390a25050505050565b60008060008373ffffffffffffffffffffffffffffffffffffffff1673ffffffffffffffffffffffffffffffffffffffff1681526020019081526020016000209050600073ffffffffffffffffffffffffffffffffffffffff168160000160009054906101000a900473ffffffffffffffffffffffffffffffffffffffff1673ffffffffffffffffffffffffffffffffffffffff1603610530576040517f08c379a0000000000000000000000000000000000000000000000000000000008152600401610527906112cf565b60405180910390fd5b6000816002015490506000826003015490508260000160009054906101000a900473ffffffffffffffffffffffffffffffffffffffff1673ffffffffffffffffffffffffffffffffffffffff1663a9059cbb33846040518363ffffffff1660e01b81526004016105a1929190611467565b6020604051808303816000875af11580156105c0573d6000803e3d6000fd5b505050506040513d601f19601f820116820180604052508101906105e4919061135e565b508260010160009054906101000a900473ffffffffffffffffffffffffffffffffffffffff1673ffffffffffffffffffffffffffffffffffffffff1663a9059cbb33836040518363ffffffff1660e01b8152600401610644929190611467565b6020604051808303816000875af1158015610663573d6000803e3d6000fd5b505050506040513d601f19601f82011682018060405250810190610687919061135e565b5060008360020181905550600083600301819055506000836004018190555050505050565b60006020528060005260406000206000915090508060000160009054906101000a900473ffffffffffffffffffffffffffffffffffffffff16908060010160009054906101000a900473ffffffffffffffffffffffffffffffffffffffff16908060020154908060030154908060040154905085565b60008060008573ffffffffffffffffffffffffffffffffffffffff1673ffffffffffffffffffffffffffffffffffffffff1681526020019081526020016000209050600073ffffffffffffffffffffffffffffffffffffffff168160000160009054906101000a900473ffffffffffffffffffffffffffffffffffffffff1673ffffffffffffffffffffffffffffffffffffffff16036107f7576040517f08c379a00000000000000000000000000000000000000000000000000000000081526004016107ee906112cf565b60405180910390fd5b60008160000160009054906101000a900473ffffffffffffffffffffffffffffffffffffffff1673ffffffffffffffffffffffffffffffffffffffff168473ffffffffffffffffffffffffffffffffffffffff16036109ff5782826002015461086091906113fc565b82600301548461087091906113ba565b61087a91906114bf565b90508160000160009054906101000a900473ffffffffffffffffffffffffffffffffffffffff1673ffffffffffffffffffffffffffffffffffffffff166323b872dd3330866040518463ffffffff1660e01b81526004016108dd939291906112ef565b6020604051808303816000875af11580156108fc573d6000803e3d6000fd5b505050506040513d601f19601f82011682018060405250810190610920919061135e565b508160010160009054906101000a900473ffffffffffffffffffffffffffffffffffffffff1673ffffffffffffffffffffffffffffffffffffffff1663a9059cbb33836040518363ffffffff1660e01b8152600401610980929190611467565b6020604051808303816000875af115801561099f573d6000803e3d6000fd5b505050506040513d601f19601f820116820180604052508101906109c3919061135e565b50828260020160008282546109d891906113fc565b92505081905550808260030160008282546109f391906114f0565b92505081905550610c41565b8160010160009054906101000a900473ffffffffffffffffffffffffffffffffffffffff1673ffffffffffffffffffffffffffffffffffffffff168473ffffffffffffffffffffffffffffffffffffffff1603610c0557828260030154610a6691906113fc565b826002015484610a7691906113ba565b610a8091906114bf565b90508160010160009054906101000a900473ffffffffffffffffffffffffffffffffffffffff1673ffffffffffffffffffffffffffffffffffffffff166323b872dd3330866040518463ffffffff1660e01b8152600401610ae3939291906112ef565b6020604051808303816000875af1158015610b02573d6000803e3d6000fd5b505050506040513d601f19601f82011682018060405250810190610b26919061135e565b508160000160009054906101000a900473ffffffffffffffffffffffffffffffffffffffff1673ffffffffffffffffffffffffffffffffffffffff1663a9059cbb33836040518363ffffffff1660e01b8152600401610b86929190611467565b6020604051808303816000875af1158015610ba5573d6000803e3d6000fd5b505050506040513d601f19601f82011682018060405250810190610bc9919061135e565b5082826003016000828254610bde91906113fc565b9250508190555080826002016000828254610bf991906114f0565b92505081905550610c40565b6040517f08c379a0000000000000000000000000000000000000000000000000000000008152600401610c3790611596565b60405180910390fd5b5b8473ffffffffffffffffffffffffffffffffffffffff167f764f0dc063c06f32d89a3f3af80c0db4be8a090901f589a478b447e0a51f09f1858460000160009054906101000a900473ffffffffffffffffffffffffffffffffffffffff1673ffffffffffffffffffffffffffffffffffffffff168773ffffffffffffffffffffffffffffffffffffffff1614610cfb578460000160009054906101000a900473ffffffffffffffffffffffffffffffffffffffff16610d21565b8460010160009054906101000a900473ffffffffffffffffffffffffffffffffffffffff165b8685604051610d3394939291906115b6565b60405180910390a25050505050565b8073ffffffffffffffffffffffffffffffffffffffff168273ffffffffffffffffffffffffffffffffffffffff1603610db0576040517f08c379a0000000000000000000000000000000000000000000000000000000008152600401610da79061166d565b60405180910390fd5b60006040518060a001604052808473ffffffffffffffffffffffffffffffffffffffff1681526020018373ffffffffffffffffffffffffffffffffffffffff168152602001600081526020016000815260200160008152509050806000803373ffffffffffffffffffffffffffffffffffffffff1673ffffffffffffffffffffffffffffffffffffffff16815260200190815260200160002060008201518160000160006101000a81548173ffffffffffffffffffffffffffffffffffffffff021916908373ffffffffffffffffffffffffffffffffffffffff16021790555060208201518160010160006101000a81548173ffffffffffffffffffffffffffffffffffffffff021916908373ffffffffffffffffffffffffffffffffffffffff1602179055506040820151816002015560608201518160030155608082015181600401559050506001339080600181540180825580915050600190039060005260206000200160009091909190916101000a81548173ffffffffffffffffffffffffffffffffffffffff021916908373ffffffffffffffffffffffffffffffffffffffff1602179055503373ffffffffffffffffffffffffffffffffffffffff167f9c5d829b9b23efc461f9aeef91979ec04bb903feb3bee4f26d22114abfc7335b8484604051610fa392919061168d565b60405180910390a2505050565b6000806002600184610fc291906113fc565b610fcc91906114bf565b90508291505b81811015611007578091506002818285610fec91906114bf565b610ff691906113fc565b61100091906114bf565b9050610fd2565b50919050565b600080fd5b6000819050919050565b61102581611012565b811461103057600080fd5b50565b6000813590506110428161101c565b92915050565b60006020828403121561105e5761105d61100d565b5b600061106c84828501611033565b91505092915050565b600073ffffffffffffffffffffffffffffffffffffffff82169050919050565b60006110a082611075565b9050919050565b6110b081611095565b82525050565b60006020820190506110cb60008301846110a7565b92915050565b6110da81611095565b81146110e557600080fd5b50565b6000813590506110f7816110d1565b92915050565b6000806000606084860312156111165761111561100d565b5b6000611124868287016110e8565b935050602061113586828701611033565b925050604061114686828701611033565b9150509250925092565b6000602082840312156111665761116561100d565b5b6000611174848285016110e8565b91505092915050565b61118681611012565b82525050565b600060a0820190506111a160008301886110a7565b6111ae60208301876110a7565b6111bb604083018661117d565b6111c8606083018561117d565b6111d5608083018461117d565b9695505050505050565b6000806000606084860312156111f8576111f761100d565b5b6000611206868287016110e8565b9350506020611217868287016110e8565b925050604061122886828701611033565b9150509250925092565b600080604083850312156112495761124861100d565b5b6000611257858286016110e8565b9250506020611268858286016110e8565b9150509250929050565b600082825260208201905092915050565b7f506f6f6c466163746f72793a20506f6f6c20646f6573206e6f74206578697374600082015250565b60006112b9602083611272565b91506112c482611283565b602082019050919050565b600060208201905081810360008301526112e8816112ac565b9050919050565b600060608201905061130460008301866110a7565b61131160208301856110a7565b61131e604083018461117d565b949350505050565b60008115159050919050565b61133b81611326565b811461134657600080fd5b50565b60008151905061135881611332565b92915050565b6000602082840312156113745761137361100d565b5b600061138284828501611349565b91505092915050565b7f4e487b7100000000000000000000000000000000000000000000000000000000600052601160045260246000fd5b60006113c582611012565b91506113d083611012565b92508282026113de81611012565b915082820484148315176113f5576113f461138b565b5b5092915050565b600061140782611012565b915061141283611012565b925082820190508082111561142a5761142961138b565b5b92915050565b6000606082019050611445600083018661117d565b611452602083018561117d565b61145f604083018461117d565b949350505050565b600060408201905061147c60008301856110a7565b611489602083018461117d565b9392505050565b7f4e487b7100000000000000000000000000000000000000000000000000000000600052601260045260246000fd5b60006114ca82611012565b91506114d583611012565b9250826114e5576114e4611490565b5b828204905092915050565b60006114fb82611012565b915061150683611012565b925082820390508181111561151e5761151d61138b565b5b92915050565b7f506f6f6c466163746f72793a20496e76616c696420746f6b656e20666f72207360008201527f7761700000000000000000000000000000000000000000000000000000000000602082015250565b6000611580602383611272565b915061158b82611524565b604082019050919050565b600060208201905081810360008301526115af81611573565b9050919050565b60006080820190506115cb60008301876110a7565b6115d860208301866110a7565b6115e5604083018561117d565b6115f2606083018461117d565b95945050505050565b7f506f6f6c466163746f72793a20546f6b656e73206d757374206265206469666660008201527f6572656e74000000000000000000000000000000000000000000000000000000602082015250565b6000611657602583611272565b9150611662826115fb565b604082019050919050565b600060208201905081810360008301526116868161164a565b9050919050565b60006040820190506116a260008301856110a7565b6116af60208301846110a7565b939250505056fea2646970667358221220f3a24f18f57b0ed372e94d81cd88dadaf21cdb7352606eaeb197852f0026810664736f6c63430008140033",
  "linkReferences": {},
  "deployedLinkReferences": {}
}